{
  "_format": "hh-sol-artifact-1",
  "contractName": "Collection",
  "sourceName": "contracts/Collection.sol",
  "abi": [
    {
      "inputs": [],
      "stateMutability": "nonpayable",
      "type": "constructor"
    },
    {
      "anonymous": false,
      "inputs": [
        {
          "indexed": true,
          "internalType": "address",
          "name": "owner",
          "type": "address"
        },
        {
          "indexed": true,
          "internalType": "address",
          "name": "approved",
          "type": "address"
        },
        {
          "indexed": true,
          "internalType": "uint256",
          "name": "tokenId",
          "type": "uint256"
        }
      ],
      "name": "Approval",
      "type": "event"
    },
    {
      "anonymous": false,
      "inputs": [
        {
          "indexed": true,
          "internalType": "address",
          "name": "owner",
          "type": "address"
        },
        {
          "indexed": true,
          "internalType": "address",
          "name": "operator",
          "type": "address"
        },
        {
          "indexed": false,
          "internalType": "bool",
          "name": "approved",
          "type": "bool"
        }
      ],
      "name": "ApprovalForAll",
      "type": "event"
    },
    {
      "anonymous": false,
      "inputs": [
        {
          "indexed": false,
          "internalType": "address",
          "name": "sender",
          "type": "address"
        },
        {
          "indexed": false,
          "internalType": "uint256",
          "name": "tokenId",
          "type": "uint256"
        }
      ],
      "name": "NFTMintedEvent",
      "type": "event"
    },
    {
      "anonymous": false,
      "inputs": [
        {
          "indexed": true,
          "internalType": "address",
          "name": "from",
          "type": "address"
        },
        {
          "indexed": true,
          "internalType": "address",
          "name": "to",
          "type": "address"
        },
        {
          "indexed": true,
          "internalType": "uint256",
          "name": "tokenId",
          "type": "uint256"
        }
      ],
      "name": "Transfer",
      "type": "event"
    },
    {
      "inputs": [
        {
          "internalType": "address",
          "name": "to",
          "type": "address"
        },
        {
          "internalType": "uint256",
          "name": "tokenId",
          "type": "uint256"
        }
      ],
      "name": "approve",
      "outputs": [],
      "stateMutability": "nonpayable",
      "type": "function"
    },
    {
      "inputs": [
        {
          "internalType": "address",
          "name": "owner",
          "type": "address"
        }
      ],
      "name": "balanceOf",
      "outputs": [
        {
          "internalType": "uint256",
          "name": "",
          "type": "uint256"
        }
      ],
      "stateMutability": "view",
      "type": "function"
    },
    {
      "inputs": [
        {
          "internalType": "uint256",
          "name": "tokenId",
          "type": "uint256"
        }
      ],
      "name": "getApproved",
      "outputs": [
        {
          "internalType": "address",
          "name": "",
          "type": "address"
        }
      ],
      "stateMutability": "view",
      "type": "function"
    },
    {
      "inputs": [
        {
          "internalType": "address",
          "name": "owner",
          "type": "address"
        },
        {
          "internalType": "address",
          "name": "operator",
          "type": "address"
        }
      ],
      "name": "isApprovedForAll",
      "outputs": [
        {
          "internalType": "bool",
          "name": "",
          "type": "bool"
        }
      ],
      "stateMutability": "view",
      "type": "function"
    },
    {
      "inputs": [],
      "name": "makeNFT",
      "outputs": [],
      "stateMutability": "nonpayable",
      "type": "function"
    },
    {
      "inputs": [],
      "name": "name",
      "outputs": [
        {
          "internalType": "string",
          "name": "",
          "type": "string"
        }
      ],
      "stateMutability": "view",
      "type": "function"
    },
    {
      "inputs": [
        {
          "internalType": "uint256",
          "name": "tokenId",
          "type": "uint256"
        }
      ],
      "name": "ownerOf",
      "outputs": [
        {
          "internalType": "address",
          "name": "",
          "type": "address"
        }
      ],
      "stateMutability": "view",
      "type": "function"
    },
    {
      "inputs": [
        {
          "internalType": "uint256",
          "name": "newId",
          "type": "uint256"
        }
      ],
      "name": "randomColor",
      "outputs": [
        {
          "internalType": "string",
          "name": "",
          "type": "string"
        }
      ],
      "stateMutability": "view",
      "type": "function"
    },
    {
      "inputs": [
        {
          "internalType": "uint256",
          "name": "newId",
          "type": "uint256"
        }
      ],
      "name": "randomFirstWord",
      "outputs": [
        {
          "internalType": "string",
          "name": "",
          "type": "string"
        }
      ],
      "stateMutability": "view",
      "type": "function"
    },
    {
      "inputs": [
        {
          "internalType": "uint256",
          "name": "newId",
          "type": "uint256"
        }
      ],
      "name": "randomSecondWord",
      "outputs": [
        {
          "internalType": "string",
          "name": "",
          "type": "string"
        }
      ],
      "stateMutability": "view",
      "type": "function"
    },
    {
      "inputs": [
        {
          "internalType": "uint256",
          "name": "newId",
          "type": "uint256"
        }
      ],
      "name": "randomThirdWord",
      "outputs": [
        {
          "internalType": "string",
          "name": "",
          "type": "string"
        }
      ],
      "stateMutability": "view",
      "type": "function"
    },
    {
      "inputs": [
        {
          "internalType": "address",
          "name": "from",
          "type": "address"
        },
        {
          "internalType": "address",
          "name": "to",
          "type": "address"
        },
        {
          "internalType": "uint256",
          "name": "tokenId",
          "type": "uint256"
        }
      ],
      "name": "safeTransferFrom",
      "outputs": [],
      "stateMutability": "nonpayable",
      "type": "function"
    },
    {
      "inputs": [
        {
          "internalType": "address",
          "name": "from",
          "type": "address"
        },
        {
          "internalType": "address",
          "name": "to",
          "type": "address"
        },
        {
          "internalType": "uint256",
          "name": "tokenId",
          "type": "uint256"
        },
        {
          "internalType": "bytes",
          "name": "_data",
          "type": "bytes"
        }
      ],
      "name": "safeTransferFrom",
      "outputs": [],
      "stateMutability": "nonpayable",
      "type": "function"
    },
    {
      "inputs": [
        {
          "internalType": "address",
          "name": "operator",
          "type": "address"
        },
        {
          "internalType": "bool",
          "name": "approved",
          "type": "bool"
        }
      ],
      "name": "setApprovalForAll",
      "outputs": [],
      "stateMutability": "nonpayable",
      "type": "function"
    },
    {
      "inputs": [
        {
          "internalType": "bytes4",
          "name": "interfaceId",
          "type": "bytes4"
        }
      ],
      "name": "supportsInterface",
      "outputs": [
        {
          "internalType": "bool",
          "name": "",
          "type": "bool"
        }
      ],
      "stateMutability": "view",
      "type": "function"
    },
    {
      "inputs": [],
      "name": "symbol",
      "outputs": [
        {
          "internalType": "string",
          "name": "",
          "type": "string"
        }
      ],
      "stateMutability": "view",
      "type": "function"
    },
    {
      "inputs": [
        {
          "internalType": "uint256",
          "name": "tokenId",
          "type": "uint256"
        }
      ],
      "name": "tokenURI",
      "outputs": [
        {
          "internalType": "string",
          "name": "",
          "type": "string"
        }
      ],
      "stateMutability": "view",
      "type": "function"
    },
    {
      "inputs": [
        {
          "internalType": "address",
          "name": "from",
          "type": "address"
        },
        {
          "internalType": "address",
          "name": "to",
          "type": "address"
        },
        {
          "internalType": "uint256",
          "name": "tokenId",
          "type": "uint256"
        }
      ],
      "name": "transferFrom",
      "outputs": [],
      "stateMutability": "nonpayable",
      "type": "function"
    }
  ],
  "bytecode": "0x608060405260405180610160016040528061012e8152602001620046e161012e91396008908051906020019062000038929190620008d8565b5060405180610100016040528060d181526020016200486560d19139600990805190602001906200006b929190620008d8565b506040518060800160405280605681526020016200480f60569139600a90805190602001906200009d929190620008d8565b506040518060c001604052806040518060400160405280600981526020017f47726f746573717565000000000000000000000000000000000000000000000081525081526020016040518060400160405280600881526020017f436f6c6f7373616c00000000000000000000000000000000000000000000000081525081526020016040518060400160405280600981526020017f47696e6f726d6f7573000000000000000000000000000000000000000000000081525081526020016040518060400160405280600481526020017f457069630000000000000000000000000000000000000000000000000000000081525081526020016040518060400160405280600381526020017f486f74000000000000000000000000000000000000000000000000000000000081525081526020016040518060400160405280600881526020017f506f77657266756c000000000000000000000000000000000000000000000000815250815250600b9060066200021b92919062000969565b506040518060c001604052806040518060400160405280600781526020017f41766f6361646f0000000000000000000000000000000000000000000000000081525081526020016040518060400160405280600881526020017f53616e647769636800000000000000000000000000000000000000000000000081525081526020016040518060400160405280600781526020017f4f6d6c657474650000000000000000000000000000000000000000000000000081525081526020016040518060400160405280600581526020017f506561636800000000000000000000000000000000000000000000000000000081525081526020016040518060400160405280600781526020017f43757063616b650000000000000000000000000000000000000000000000000081525081526020016040518060400160405280600681526020017f436f6f6b69650000000000000000000000000000000000000000000000000000815250815250600c9060066200039992919062000969565b506040518060c001604052806040518060400160405280600781526020017f50696b616368750000000000000000000000000000000000000000000000000081525081526020016040518060400160405280600a81526020017f436861726d616e6465720000000000000000000000000000000000000000000081525081526020016040518060400160405280600881526020017f5371756972746c6500000000000000000000000000000000000000000000000081525081526020016040518060400160405280600981526020017f42756c626173617572000000000000000000000000000000000000000000000081525081526020016040518060400160405280600681526020017f506964676579000000000000000000000000000000000000000000000000000081525081526020016040518060400160405280600981526020017f50696467656f74746f0000000000000000000000000000000000000000000000815250815250600d9060066200051792919062000969565b506040518061010001604052806040518060400160405280600981526020017f272332336439393727000000000000000000000000000000000000000000000081525081526020016040518060400160405280600981526020017f272362383437666627000000000000000000000000000000000000000000000081525081526020016040518060400160405280600981526020017f272366663265666327000000000000000000000000000000000000000000000081525081526020016040518060400160405280600981526020017f272366663534373327000000000000000000000000000000000000000000000081525081526020016040518060400160405280600981526020017f272330306436363427000000000000000000000000000000000000000000000081525081526020016040518060400160405280600981526020017f272366666261323427000000000000000000000000000000000000000000000081525081526020016040518060400160405280600981526020017f272334306666633227000000000000000000000000000000000000000000000081525081526020016040518060400160405280600981526020017f2723336566346661270000000000000000000000000000000000000000000000815250815250600e9060086200070c929190620009d0565b503480156200071a57600080fd5b506040518060400160405280600581526020017f4d794e46540000000000000000000000000000000000000000000000000000008152506040518060400160405280600681526020017f434849524147000000000000000000000000000000000000000000000000000081525081600090805190602001906200079f929190620008d8565b508060019080519060200190620007b8929190620008d8565b505050620008066040518060400160405280601e81526020017f54686973206973206d79204e465420636f6e74726163742e20576f61682100008152506200080c60201b620011aa1760201c565b62000bf1565b620008ac8160405160240162000823919062000b05565b6040516020818303038152906040527f41304fac000000000000000000000000000000000000000000000000000000007bffffffffffffffffffffffffffffffffffffffffffffffffffffffff19166020820180517bffffffffffffffffffffffffffffffffffffffffffffffffffffffff8381831617835250505050620008af60201b60201c565b50565b60008151905060006a636f6e736f6c652e6c6f679050602083016000808483855afa5050505050565b828054620008e69062000b7b565b90600052602060002090601f0160209004810192826200090a576000855562000956565b82601f106200092557805160ff191683800117855562000956565b8280016001018555821562000956579182015b828111156200095557825182559160200191906001019062000938565b5b50905062000965919062000a37565b5090565b828054828255906000526020600020908101928215620009bd579160200282015b82811115620009bc578251829080519060200190620009ab929190620008d8565b50916020019190600101906200098a565b5b509050620009cc919062000a56565b5090565b82805482825590600052602060002090810192821562000a24579160200282015b8281111562000a2357825182908051906020019062000a12929190620008d8565b5091602001919060010190620009f1565b5b50905062000a33919062000a56565b5090565b5b8082111562000a5257600081600090555060010162000a38565b5090565b5b8082111562000a7a576000818162000a70919062000a7e565b5060010162000a57565b5090565b50805462000a8c9062000b7b565b6000825580601f1062000aa0575062000ac1565b601f01602090049060005260206000209081019062000ac0919062000a37565b5b50565b600062000ad18262000b29565b62000add818562000b34565b935062000aef81856020860162000b45565b62000afa8162000be0565b840191505092915050565b6000602082019050818103600083015262000b21818462000ac4565b905092915050565b600081519050919050565b600082825260208201905092915050565b60005b8381101562000b6557808201518184015260208101905062000b48565b8381111562000b75576000848401525b50505050565b6000600282049050600182168062000b9457607f821691505b6020821081141562000bab5762000baa62000bb1565b5b50919050565b7f4e487b7100000000000000000000000000000000000000000000000000000000600052602260045260246000fd5b6000601f19601f8301169050919050565b613ae08062000c016000396000f3fe608060405234801561001057600080fd5b50600436106101165760003560e01c80637bb1b974116100a2578063b88d4fde11610071578063b88d4fde146102f1578063c87b56dd1461030d578063e985e9c51461033d578063f3838e291461036d578063f9f431e41461039d57610116565b80637bb1b9741461027d57806395d89b41146102ad578063a22cb465146102cb578063b036b4bd146102e757610116565b806323b872dd116100e957806323b872dd146101b557806342842e0e146101d157806352fac0c8146101ed5780636352211e1461021d57806370a082311461024d57610116565b806301ffc9a71461011b57806306fdde031461014b578063081812fc14610169578063095ea7b314610199575b600080fd5b610135600480360381019061013091906125a3565b6103cd565b6040516101429190612cf5565b60405180910390f35b6101536104af565b6040516101609190612d10565b60405180910390f35b610183600480360381019061017e91906125f5565b610541565b6040516101909190612c65565b60405180910390f35b6101b360048036038101906101ae9190612567565b6105c6565b005b6101cf60048036038101906101ca9190612461565b6106de565b005b6101eb60048036038101906101e69190612461565b61073e565b005b610207600480360381019061020291906125f5565b61075e565b6040516102149190612d10565b60405180910390f35b610237600480360381019061023291906125f5565b61087b565b6040516102449190612c65565b60405180910390f35b610267600480360381019061026291906123fc565b61092d565b6040516102749190612f70565b60405180910390f35b610297600480360381019061029291906125f5565b6109e5565b6040516102a49190612d10565b60405180910390f35b6102b5610b02565b6040516102c29190612d10565b60405180910390f35b6102e560048036038101906102e0919061252b565b610b94565b005b6102ef610baa565b005b61030b600480360381019061030691906124b0565b610d28565b005b610327600480360381019061032291906125f5565b610d8a565b6040516103349190612d10565b60405180910390f35b61035760048036038101906103529190612425565b610edc565b6040516103649190612cf5565b60405180910390f35b610387600480360381019061038291906125f5565b610f70565b6040516103949190612d10565b60405180910390f35b6103b760048036038101906103b291906125f5565b61108d565b6040516103c49190612d10565b60405180910390f35b60007f80ac58cd000000000000000000000000000000000000000000000000000000007bffffffffffffffffffffffffffffffffffffffffffffffffffffffff1916827bffffffffffffffffffffffffffffffffffffffffffffffffffffffff1916148061049857507f5b5e139f000000000000000000000000000000000000000000000000000000007bffffffffffffffffffffffffffffffffffffffffffffffffffffffff1916827bffffffffffffffffffffffffffffffffffffffffffffffffffffffff1916145b806104a857506104a782611243565b5b9050919050565b6060600080546104be90613204565b80601f01602080910402602001604051908101604052809291908181526020018280546104ea90613204565b80156105375780601f1061050c57610100808354040283529160200191610537565b820191906000526020600020905b81548152906001019060200180831161051a57829003601f168201915b5050505050905090565b600061054c826112ad565b61058b576040517f08c379a000000000000000000000000000000000000000000000000000000000815260040161058290612ef0565b60405180910390fd5b6004600083815260200190815260200160002060009054906101000a900473ffffffffffffffffffffffffffffffffffffffff169050919050565b60006105d18261087b565b90508073ffffffffffffffffffffffffffffffffffffffff168373ffffffffffffffffffffffffffffffffffffffff161415610642576040517f08c379a000000000000000000000000000000000000000000000000000000000815260040161063990612f30565b60405180910390fd5b8073ffffffffffffffffffffffffffffffffffffffff16610661611319565b73ffffffffffffffffffffffffffffffffffffffff161480610690575061068f8161068a611319565b610edc565b5b6106cf576040517f08c379a00000000000000000000000000000000000000000000000000000000081526004016106c690612e30565b60405180910390fd5b6106d98383611321565b505050565b6106ef6106e9611319565b826113da565b61072e576040517f08c379a000000000000000000000000000000000000000000000000000000000815260040161072590612f50565b60405180910390fd5b6107398383836114b8565b505050565b61075983838360405180602001604052806000815250610d28565b505050565b60606000600d805490506107718461171f565b6040516020016107819190612b76565b6040516020818303038152906040528051906020012060001c6107a491906132b0565b9050600d81815481106107e0577f4e487b7100000000000000000000000000000000000000000000000000000000600052603260045260246000fd5b9060005260206000200180546107f590613204565b80601f016020809104026020016040519081016040528092919081815260200182805461082190613204565b801561086e5780601f106108435761010080835404028352916020019161086e565b820191906000526020600020905b81548152906001019060200180831161085157829003601f168201915b5050505050915050919050565b6000806002600084815260200190815260200160002060009054906101000a900473ffffffffffffffffffffffffffffffffffffffff169050600073ffffffffffffffffffffffffffffffffffffffff168173ffffffffffffffffffffffffffffffffffffffff161415610924576040517f08c379a000000000000000000000000000000000000000000000000000000000815260040161091b90612e70565b60405180910390fd5b80915050919050565b60008073ffffffffffffffffffffffffffffffffffffffff168273ffffffffffffffffffffffffffffffffffffffff16141561099e576040517f08c379a000000000000000000000000000000000000000000000000000000000815260040161099590612e50565b60405180910390fd5b600360008373ffffffffffffffffffffffffffffffffffffffff1673ffffffffffffffffffffffffffffffffffffffff168152602001908152602001600020549050919050565b60606000600e805490506109f88461171f565b604051602001610a089190612c43565b6040516020818303038152906040528051906020012060001c610a2b91906132b0565b9050600e8181548110610a67577f4e487b7100000000000000000000000000000000000000000000000000000000600052603260045260246000fd5b906000526020600020018054610a7c90613204565b80601f0160208091040260200160405190810160405280929190818152602001828054610aa890613204565b8015610af55780601f10610aca57610100808354040283529160200191610af5565b820191906000526020600020905b815481529060010190602001808311610ad857829003601f168201915b5050505050915050919050565b606060018054610b1190613204565b80601f0160208091040260200160405190810160405280929190818152602001828054610b3d90613204565b8015610b8a5780601f10610b5f57610100808354040283529160200191610b8a565b820191906000526020600020905b815481529060010190602001808311610b6d57829003601f168201915b5050505050905090565b610ba6610b9f611319565b83836118cc565b5050565b6000610bb66007611a39565b90506000610bc382610f70565b90506000610bd08361108d565b90506000610bdd8461075e565b90506000838383604051602001610bf693929190612afc565b60405160208183030381529060405290506000610c12866109e5565b90506000600982600a85604051602001610c2f9493929190612b2d565b60405160208183030381529060405290506000610c7484610c4f84611a47565b604051602001610c60929190612bba565b604051602081830303815290604052611a47565b9050600081604051602001610c899190612c21565b6040516020818303038152906040529050610ca3816111aa565b610cad338a611c05565b610cb78982611c23565b610cda604051806060016040528060258152602001613a86602591398a33611c97565b610ce46007611d36565b7f15af288ef464d1cf4d70b6fef5f6aeb6f013efec5fadd5fc6729ef3936ff3c30338a604051610d15929190612ccc565b60405180910390a1505050505050505050565b610d39610d33611319565b836113da565b610d78576040517f08c379a0000000000000000000000000000000000000000000000000000000008152600401610d6f90612f50565b60405180910390fd5b610d8484848484611d4c565b50505050565b6060610d95826112ad565b610dd4576040517f08c379a0000000000000000000000000000000000000000000000000000000008152600401610dcb90612ed0565b60405180910390fd5b6000600660008481526020019081526020016000208054610df490613204565b80601f0160208091040260200160405190810160405280929190818152602001828054610e2090613204565b8015610e6d5780601f10610e4257610100808354040283529160200191610e6d565b820191906000526020600020905b815481529060010190602001808311610e5057829003601f168201915b505050505090506000610e7e611da8565b9050600081511415610e94578192505050610ed7565b600082511115610ec9578082604051602001610eb1929190612ad8565b60405160208183030381529060405292505050610ed7565b610ed284611dbf565b925050505b919050565b6000600560008473ffffffffffffffffffffffffffffffffffffffff1673ffffffffffffffffffffffffffffffffffffffff16815260200190815260200160002060008373ffffffffffffffffffffffffffffffffffffffff1673ffffffffffffffffffffffffffffffffffffffff16815260200190815260200160002060009054906101000a900460ff16905092915050565b60606000600b80549050610f838461171f565b604051602001610f939190612bff565b6040516020818303038152906040528051906020012060001c610fb691906132b0565b9050600b8181548110610ff2577f4e487b7100000000000000000000000000000000000000000000000000000000600052603260045260246000fd5b90600052602060002001805461100790613204565b80601f016020809104026020016040519081016040528092919081815260200182805461103390613204565b80156110805780601f1061105557610100808354040283529160200191611080565b820191906000526020600020905b81548152906001019060200180831161106357829003601f168201915b5050505050915050919050565b60606000600c805490506110a08461171f565b6040516020016110b09190612b98565b6040516020818303038152906040528051906020012060001c6110d391906132b0565b9050600c818154811061110f577f4e487b7100000000000000000000000000000000000000000000000000000000600052603260045260246000fd5b90600052602060002001805461112490613204565b80601f016020809104026020016040519081016040528092919081815260200182805461115090613204565b801561119d5780601f106111725761010080835404028352916020019161119d565b820191906000526020600020905b81548152906001019060200180831161118057829003601f168201915b5050505050915050919050565b611240816040516024016111be9190612d10565b6040516020818303038152906040527f41304fac000000000000000000000000000000000000000000000000000000007bffffffffffffffffffffffffffffffffffffffffffffffffffffffff19166020820180517bffffffffffffffffffffffffffffffffffffffffffffffffffffffff8381831617835250505050611e66565b50565b60007f01ffc9a7000000000000000000000000000000000000000000000000000000007bffffffffffffffffffffffffffffffffffffffffffffffffffffffff1916827bffffffffffffffffffffffffffffffffffffffffffffffffffffffff1916149050919050565b60008073ffffffffffffffffffffffffffffffffffffffff166002600084815260200190815260200160002060009054906101000a900473ffffffffffffffffffffffffffffffffffffffff1673ffffffffffffffffffffffffffffffffffffffff1614159050919050565b600033905090565b816004600083815260200190815260200160002060006101000a81548173ffffffffffffffffffffffffffffffffffffffff021916908373ffffffffffffffffffffffffffffffffffffffff160217905550808273ffffffffffffffffffffffffffffffffffffffff166113948361087b565b73ffffffffffffffffffffffffffffffffffffffff167f8c5be1e5ebec7d5bd14f71427d1e84f3dd0314c0f7b2291e5b200ac8c7c3b92560405160405180910390a45050565b60006113e5826112ad565b611424576040517f08c379a000000000000000000000000000000000000000000000000000000000815260040161141b90612e10565b60405180910390fd5b600061142f8361087b565b90508073ffffffffffffffffffffffffffffffffffffffff168473ffffffffffffffffffffffffffffffffffffffff16148061149e57508373ffffffffffffffffffffffffffffffffffffffff1661148684610541565b73ffffffffffffffffffffffffffffffffffffffff16145b806114af57506114ae8185610edc565b5b91505092915050565b8273ffffffffffffffffffffffffffffffffffffffff166114d88261087b565b73ffffffffffffffffffffffffffffffffffffffff161461152e576040517f08c379a000000000000000000000000000000000000000000000000000000000815260040161152590612d90565b60405180910390fd5b600073ffffffffffffffffffffffffffffffffffffffff168273ffffffffffffffffffffffffffffffffffffffff16141561159e576040517f08c379a000000000000000000000000000000000000000000000000000000000815260040161159590612dd0565b60405180910390fd5b6115a9838383611e8f565b6115b4600082611321565b6001600360008573ffffffffffffffffffffffffffffffffffffffff1673ffffffffffffffffffffffffffffffffffffffff1681526020019081526020016000206000828254611604919061311a565b925050819055506001600360008473ffffffffffffffffffffffffffffffffffffffff1673ffffffffffffffffffffffffffffffffffffffff168152602001908152602001600020600082825461165b9190613039565b92505081905550816002600083815260200190815260200160002060006101000a81548173ffffffffffffffffffffffffffffffffffffffff021916908373ffffffffffffffffffffffffffffffffffffffff160217905550808273ffffffffffffffffffffffffffffffffffffffff168473ffffffffffffffffffffffffffffffffffffffff167fddf252ad1be2c89b69c2b068fc378daa952ba7f163c4a11628f55a4df523b3ef60405160405180910390a461171a838383611e94565b505050565b60606000821415611767576040518060400160405280600181526020017f300000000000000000000000000000000000000000000000000000000000000081525090506118c7565b600082905060005b6000821461179957808061178290613267565b915050600a82611792919061308f565b915061176f565b60008167ffffffffffffffff8111156117db577f4e487b7100000000000000000000000000000000000000000000000000000000600052604160045260246000fd5b6040519080825280601f01601f19166020018201604052801561180d5781602001600182028036833780820191505090505b5090505b600085146118c057600182611826919061311a565b9150600a8561183591906132b0565b60306118419190613039565b60f81b81838151811061187d577f4e487b7100000000000000000000000000000000000000000000000000000000600052603260045260246000fd5b60200101907effffffffffffffffffffffffffffffffffffffffffffffffffffffffffffff1916908160001a905350600a856118b9919061308f565b9450611811565b8093505050505b919050565b8173ffffffffffffffffffffffffffffffffffffffff168373ffffffffffffffffffffffffffffffffffffffff16141561193b576040517f08c379a000000000000000000000000000000000000000000000000000000000815260040161193290612df0565b60405180910390fd5b80600560008573ffffffffffffffffffffffffffffffffffffffff1673ffffffffffffffffffffffffffffffffffffffff16815260200190815260200160002060008473ffffffffffffffffffffffffffffffffffffffff1673ffffffffffffffffffffffffffffffffffffffff16815260200190815260200160002060006101000a81548160ff0219169083151502179055508173ffffffffffffffffffffffffffffffffffffffff168373ffffffffffffffffffffffffffffffffffffffff167f17307eab39ab6107e8899845ad3d59bd9653f200f220920489ca2b5937696c3183604051611a2c9190612cf5565b60405180910390a3505050565b600081600001549050919050565b60606000825190506000811415611a705760405180602001604052806000815250915050611c00565b60006003600283611a819190613039565b611a8b919061308f565b6004611a9791906130c0565b90506000602082611aa89190613039565b67ffffffffffffffff811115611ae7577f4e487b7100000000000000000000000000000000000000000000000000000000600052604160045260246000fd5b6040519080825280601f01601f191660200182016040528015611b195781602001600182028036833780820191505090505b5090506000604051806060016040528060408152602001613a46604091399050600181016020830160005b86811015611bbd5760038101905062ffffff818a015116603f8160121c168401518060081b905060ff603f83600c1c1686015116810190508060081b905060ff603f8360061c1686015116810190508060081b905060ff603f831686015116810190508060e01b90508084526004840193505050611b44565b506003860660018114611bd75760028114611be757611bf2565b613d3d60f01b6002830352611bf2565b603d60f81b60018303525b508484525050819450505050505b919050565b611c1f828260405180602001604052806000815250611e99565b5050565b611c2c826112ad565b611c6b576040517f08c379a0000000000000000000000000000000000000000000000000000000008152600401611c6290612e90565b60405180910390fd5b80600660008481526020019081526020016000209080519060200190611c92929190612288565b505050565b611d31838383604051602401611caf93929190612d32565b6040516020818303038152906040527fe3849f79000000000000000000000000000000000000000000000000000000007bffffffffffffffffffffffffffffffffffffffffffffffffffffffff19166020820180517bffffffffffffffffffffffffffffffffffffffffffffffffffffffff8381831617835250505050611e66565b505050565b6001816000016000828254019250508190555050565b611d578484846114b8565b611d6384848484611ef4565b611da2576040517f08c379a0000000000000000000000000000000000000000000000000000000008152600401611d9990612d70565b60405180910390fd5b50505050565b606060405180602001604052806000815250905090565b6060611dca826112ad565b611e09576040517f08c379a0000000000000000000000000000000000000000000000000000000008152600401611e0090612f10565b60405180910390fd5b6000611e13611da8565b90506000815111611e335760405180602001604052806000815250611e5e565b80611e3d8461171f565b604051602001611e4e929190612ad8565b6040516020818303038152906040525b915050919050565b60008151905060006a636f6e736f6c652e6c6f679050602083016000808483855afa5050505050565b505050565b505050565b611ea3838361208b565b611eb06000848484611ef4565b611eef576040517f08c379a0000000000000000000000000000000000000000000000000000000008152600401611ee690612d70565b60405180910390fd5b505050565b6000611f158473ffffffffffffffffffffffffffffffffffffffff16612265565b1561207e578373ffffffffffffffffffffffffffffffffffffffff1663150b7a02611f3e611319565b8786866040518563ffffffff1660e01b8152600401611f609493929190612c80565b602060405180830381600087803b158015611f7a57600080fd5b505af1925050508015611fab57506040513d601f19601f82011682018060405250810190611fa891906125cc565b60015b61202e573d8060008114611fdb576040519150601f19603f3d011682016040523d82523d6000602084013e611fe0565b606091505b50600081511415612026576040517f08c379a000000000000000000000000000000000000000000000000000000000815260040161201d90612d70565b60405180910390fd5b805181602001fd5b63150b7a0260e01b7bffffffffffffffffffffffffffffffffffffffffffffffffffffffff1916817bffffffffffffffffffffffffffffffffffffffffffffffffffffffff191614915050612083565b600190505b949350505050565b600073ffffffffffffffffffffffffffffffffffffffff168273ffffffffffffffffffffffffffffffffffffffff1614156120fb576040517f08c379a00000000000000000000000000000000000000000000000000000000081526004016120f290612eb0565b60405180910390fd5b612104816112ad565b15612144576040517f08c379a000000000000000000000000000000000000000000000000000000000815260040161213b90612db0565b60405180910390fd5b61215060008383611e8f565b6001600360008473ffffffffffffffffffffffffffffffffffffffff1673ffffffffffffffffffffffffffffffffffffffff16815260200190815260200160002060008282546121a09190613039565b92505081905550816002600083815260200190815260200160002060006101000a81548173ffffffffffffffffffffffffffffffffffffffff021916908373ffffffffffffffffffffffffffffffffffffffff160217905550808273ffffffffffffffffffffffffffffffffffffffff16600073ffffffffffffffffffffffffffffffffffffffff167fddf252ad1be2c89b69c2b068fc378daa952ba7f163c4a11628f55a4df523b3ef60405160405180910390a461226160008383611e94565b5050565b6000808273ffffffffffffffffffffffffffffffffffffffff163b119050919050565b82805461229490613204565b90600052602060002090601f0160209004810192826122b657600085556122fd565b82601f106122cf57805160ff19168380011785556122fd565b828001600101855582156122fd579182015b828111156122fc5782518255916020019190600101906122e1565b5b50905061230a919061230e565b5090565b5b8082111561232757600081600090555060010161230f565b5090565b600061233e61233984612fb0565b612f8b565b90508281526020810184848401111561235657600080fd5b6123618482856131c2565b509392505050565b600081359050612378816139e9565b92915050565b60008135905061238d81613a00565b92915050565b6000813590506123a281613a17565b92915050565b6000815190506123b781613a17565b92915050565b600082601f8301126123ce57600080fd5b81356123de84826020860161232b565b91505092915050565b6000813590506123f681613a2e565b92915050565b60006020828403121561240e57600080fd5b600061241c84828501612369565b91505092915050565b6000806040838503121561243857600080fd5b600061244685828601612369565b925050602061245785828601612369565b9150509250929050565b60008060006060848603121561247657600080fd5b600061248486828701612369565b935050602061249586828701612369565b92505060406124a6868287016123e7565b9150509250925092565b600080600080608085870312156124c657600080fd5b60006124d487828801612369565b94505060206124e587828801612369565b93505060406124f6878288016123e7565b925050606085013567ffffffffffffffff81111561251357600080fd5b61251f878288016123bd565b91505092959194509250565b6000806040838503121561253e57600080fd5b600061254c85828601612369565b925050602061255d8582860161237e565b9150509250929050565b6000806040838503121561257a57600080fd5b600061258885828601612369565b9250506020612599858286016123e7565b9150509250929050565b6000602082840312156125b557600080fd5b60006125c384828501612393565b91505092915050565b6000602082840312156125de57600080fd5b60006125ec848285016123a8565b91505092915050565b60006020828403121561260757600080fd5b6000612615848285016123e7565b91505092915050565b6126278161314e565b82525050565b61263681613160565b82525050565b600061264782612ff6565b612651818561300c565b93506126618185602086016131d1565b61266a8161339d565b840191505092915050565b600061268082613001565b61268a818561301d565b935061269a8185602086016131d1565b6126a38161339d565b840191505092915050565b60006126b982613001565b6126c3818561302e565b93506126d38185602086016131d1565b80840191505092915050565b600081546126ec81613204565b6126f6818661302e565b94506001821660008114612711576001811461272257612755565b60ff19831686528186019350612755565b61272b85612fe1565b60005b8381101561274d5781548189015260018201915060208101905061272e565b838801955050505b50505092915050565b600061276b60328361301d565b9150612776826133ae565b604082019050919050565b600061278e60258361301d565b9150612799826133fd565b604082019050919050565b60006127b1601c8361301d565b91506127bc8261344c565b602082019050919050565b60006127d4600a8361302e565b91506127df82613475565b600a82019050919050565b60006127f760248361301d565b91506128028261349e565b604082019050919050565b600061281a60198361301d565b9150612825826134ed565b602082019050919050565b600061283d600b8361302e565b915061284882613516565b600b82019050919050565b6000612860602c8361301d565b915061286b8261353f565b604082019050919050565b6000612883600d8361302e565b915061288e8261358e565b600d82019050919050565b60006128a660388361301d565b91506128b1826135b7565b604082019050919050565b60006128c9602a8361301d565b91506128d482613606565b604082019050919050565b60006128ec60298361301d565b91506128f782613655565b604082019050919050565b600061290f602e8361301d565b915061291a826136a4565b604082019050919050565b600061293260028361302e565b915061293d826136f3565b600282019050919050565b600061295560208361301d565b91506129608261371c565b602082019050919050565b600061297860318361301d565b915061298382613745565b604082019050919050565b600061299b602c8361301d565b91506129a682613794565b604082019050919050565b60006129be602f8361301d565b91506129c9826137e3565b604082019050919050565b60006129e1600a8361302e565b91506129ec82613832565b600a82019050919050565b6000612a0460218361301d565b9150612a0f8261385b565b604082019050919050565b6000612a27600a8361302e565b9150612a32826138aa565b600a82019050919050565b6000612a4a601d8361302e565b9150612a55826138d3565b601d82019050919050565b6000612a6d60318361301d565b9150612a78826138fc565b604082019050919050565b6000612a9060058361302e565b9150612a9b8261394b565b600582019050919050565b6000612ab3604f8361302e565b9150612abe82613974565b604f82019050919050565b612ad2816131b8565b82525050565b6000612ae482856126ae565b9150612af082846126ae565b91508190509392505050565b6000612b0882866126ae565b9150612b1482856126ae565b9150612b2082846126ae565b9150819050949350505050565b6000612b3982876126df565b9150612b4582866126ae565b9150612b5182856126df565b9150612b5d82846126ae565b9150612b6882612876565b915081905095945050505050565b6000612b81826127c7565b9150612b8d82846126ae565b915081905092915050565b6000612ba382612830565b9150612baf82846126ae565b915081905092915050565b6000612bc5826129d4565b9150612bd182856126ae565b9150612bdc82612aa6565b9150612be882846126ae565b9150612bf382612925565b91508190509392505050565b6000612c0a82612a1a565b9150612c1682846126ae565b915081905092915050565b6000612c2c82612a3d565b9150612c3882846126ae565b915081905092915050565b6000612c4e82612a83565b9150612c5a82846126ae565b915081905092915050565b6000602082019050612c7a600083018461261e565b92915050565b6000608082019050612c95600083018761261e565b612ca2602083018661261e565b612caf6040830185612ac9565b8181036060830152612cc1818461263c565b905095945050505050565b6000604082019050612ce1600083018561261e565b612cee6020830184612ac9565b9392505050565b6000602082019050612d0a600083018461262d565b92915050565b60006020820190508181036000830152612d2a8184612675565b905092915050565b60006060820190508181036000830152612d4c8186612675565b9050612d5b6020830185612ac9565b612d68604083018461261e565b949350505050565b60006020820190508181036000830152612d898161275e565b9050919050565b60006020820190508181036000830152612da981612781565b9050919050565b60006020820190508181036000830152612dc9816127a4565b9050919050565b60006020820190508181036000830152612de9816127ea565b9050919050565b60006020820190508181036000830152612e098161280d565b9050919050565b60006020820190508181036000830152612e2981612853565b9050919050565b60006020820190508181036000830152612e4981612899565b9050919050565b60006020820190508181036000830152612e69816128bc565b9050919050565b60006020820190508181036000830152612e89816128df565b9050919050565b60006020820190508181036000830152612ea981612902565b9050919050565b60006020820190508181036000830152612ec981612948565b9050919050565b60006020820190508181036000830152612ee98161296b565b9050919050565b60006020820190508181036000830152612f098161298e565b9050919050565b60006020820190508181036000830152612f29816129b1565b9050919050565b60006020820190508181036000830152612f49816129f7565b9050919050565b60006020820190508181036000830152612f6981612a60565b9050919050565b6000602082019050612f856000830184612ac9565b92915050565b6000612f95612fa6565b9050612fa18282613236565b919050565b6000604051905090565b600067ffffffffffffffff821115612fcb57612fca61336e565b5b612fd48261339d565b9050602081019050919050565b60008190508160005260206000209050919050565b600081519050919050565b600081519050919050565b600082825260208201905092915050565b600082825260208201905092915050565b600081905092915050565b6000613044826131b8565b915061304f836131b8565b9250827fffffffffffffffffffffffffffffffffffffffffffffffffffffffffffffffff03821115613084576130836132e1565b5b828201905092915050565b600061309a826131b8565b91506130a5836131b8565b9250826130b5576130b4613310565b5b828204905092915050565b60006130cb826131b8565b91506130d6836131b8565b9250817fffffffffffffffffffffffffffffffffffffffffffffffffffffffffffffffff048311821515161561310f5761310e6132e1565b5b828202905092915050565b6000613125826131b8565b9150613130836131b8565b925082821015613143576131426132e1565b5b828203905092915050565b600061315982613198565b9050919050565b60008115159050919050565b60007fffffffff0000000000000000000000000000000000000000000000000000000082169050919050565b600073ffffffffffffffffffffffffffffffffffffffff82169050919050565b6000819050919050565b82818337600083830152505050565b60005b838110156131ef5780820151818401526020810190506131d4565b838111156131fe576000848401525b50505050565b6000600282049050600182168061321c57607f821691505b602082108114156132305761322f61333f565b5b50919050565b61323f8261339d565b810181811067ffffffffffffffff8211171561325e5761325d61336e565b5b80604052505050565b6000613272826131b8565b91507fffffffffffffffffffffffffffffffffffffffffffffffffffffffffffffffff8214156132a5576132a46132e1565b5b600182019050919050565b60006132bb826131b8565b91506132c6836131b8565b9250826132d6576132d5613310565b5b828206905092915050565b7f4e487b7100000000000000000000000000000000000000000000000000000000600052601160045260246000fd5b7f4e487b7100000000000000000000000000000000000000000000000000000000600052601260045260246000fd5b7f4e487b7100000000000000000000000000000000000000000000000000000000600052602260045260246000fd5b7f4e487b7100000000000000000000000000000000000000000000000000000000600052604160045260246000fd5b6000601f19601f8301169050919050565b7f4552433732313a207472616e7366657220746f206e6f6e20455243373231526560008201527f63656976657220696d706c656d656e7465720000000000000000000000000000602082015250565b7f4552433732313a207472616e736665722066726f6d20696e636f72726563742060008201527f6f776e6572000000000000000000000000000000000000000000000000000000602082015250565b7f4552433732313a20746f6b656e20616c7265616479206d696e74656400000000600082015250565b7f54484952445f574f524400000000000000000000000000000000000000000000600082015250565b7f4552433732313a207472616e7366657220746f20746865207a65726f2061646460008201527f7265737300000000000000000000000000000000000000000000000000000000602082015250565b7f4552433732313a20617070726f766520746f2063616c6c657200000000000000600082015250565b7f5345434f4e445f574f5244000000000000000000000000000000000000000000600082015250565b7f4552433732313a206f70657261746f7220717565727920666f72206e6f6e657860008201527f697374656e7420746f6b656e0000000000000000000000000000000000000000602082015250565b7f3c2f746578743e3c2f7376673e00000000000000000000000000000000000000600082015250565b7f4552433732313a20617070726f76652063616c6c6572206973206e6f74206f7760008201527f6e6572206e6f7220617070726f76656420666f7220616c6c0000000000000000602082015250565b7f4552433732313a2062616c616e636520717565727920666f7220746865207a6560008201527f726f206164647265737300000000000000000000000000000000000000000000602082015250565b7f4552433732313a206f776e657220717565727920666f72206e6f6e657869737460008201527f656e7420746f6b656e0000000000000000000000000000000000000000000000602082015250565b7f45524337323155524953746f726167653a2055524920736574206f66206e6f6e60008201527f6578697374656e7420746f6b656e000000000000000000000000000000000000602082015250565b7f227d000000000000000000000000000000000000000000000000000000000000600082015250565b7f4552433732313a206d696e7420746f20746865207a65726f2061646472657373600082015250565b7f45524337323155524953746f726167653a2055524920717565727920666f722060008201527f6e6f6e6578697374656e7420746f6b656e000000000000000000000000000000602082015250565b7f4552433732313a20617070726f76656420717565727920666f72206e6f6e657860008201527f697374656e7420746f6b656e0000000000000000000000000000000000000000602082015250565b7f4552433732314d657461646174613a2055524920717565727920666f72206e6f60008201527f6e6578697374656e7420746f6b656e0000000000000000000000000000000000602082015250565b7f7b226e616d65223a202200000000000000000000000000000000000000000000600082015250565b7f4552433732313a20617070726f76616c20746f2063757272656e74206f776e6560008201527f7200000000000000000000000000000000000000000000000000000000000000602082015250565b7f46495253545f574f524400000000000000000000000000000000000000000000600082015250565b7f646174613a6170706c69636174696f6e2f6a736f6e3b6261736536342c000000600082015250565b7f4552433732313a207472616e736665722063616c6c6572206973206e6f74206f60008201527f776e6572206e6f7220617070726f766564000000000000000000000000000000602082015250565b7f434f4c4f52000000000000000000000000000000000000000000000000000000600082015250565b7f222c20226465736372697074696f6e223a202252616e646f6d204e616d65204760008201527f656e657261746f72222c2022696d616765223a2022646174613a696d6167652f60208201527f7376672b786d6c3b6261736536342c0000000000000000000000000000000000604082015250565b6139f28161314e565b81146139fd57600080fd5b50565b613a0981613160565b8114613a1457600080fd5b50565b613a208161316c565b8114613a2b57600080fd5b50565b613a37816131b8565b8114613a4257600080fd5b5056fe4142434445464748494a4b4c4d4e4f505152535455565758595a6162636465666768696a6b6c6d6e6f707172737475767778797a303132333435363738392b2f416e204e4654206f6620494420257320686173206265656e206d696e74656420746f202573a2646970667358221220b5884a05cc83f3ce00e043c66dc8057930b9255c6f87e11c9125f7f7a19738d964736f6c634300080100333c73766720786d6c6e733d27687474703a2f2f7777772e77332e6f72672f323030302f73766727207072657365727665417370656374526174696f3d27784d696e594d696e206d656574272076696577426f783d273020302033353020333530273e3c7374796c653e2e62617365207b2066696c6c3a2077686974653b20666f6e742d66616d696c793a204c61746f3b20666f6e742d73697a653a20323470783b207d3c2f7374796c653e3c726563742077696474683d273130302527206865696768743d2731303025272066696c6c3d27626c61636b27202f3e3c7465787420783d273530252720793d273530252720636c6173733d27626173652720646f6d696e616e742d626173656c696e653d276d6964646c652720746578742d616e63686f723d276d6964646c65273e202f3e3c7465787420783d273530252720793d273530252720636c6173733d27626173652720646f6d696e616e742d626173656c696e653d276d6964646c652720746578742d616e63686f723d276d6964646c65273e3c73766720786d6c6e733d27687474703a2f2f7777772e77332e6f72672f323030302f73766727207072657365727665417370656374526174696f3d27784d696e594d696e206d656574272076696577426f783d273020302033353020333530273e3c7374796c653e2e62617365207b2066696c6c3a2077686974653b20666f6e742d66616d696c793a204c61746f3b20666f6e742d73697a653a20323470783b207d3c2f7374796c653e3c726563742077696474683d273130302527206865696768743d2731303025272066696c6c3d",
  "linkReferences": {},
  "deployedLinkReferences": {}
}